{
  "_format": "hh-sol-artifact-1",
  "contractName": "MyEpicNFT",
  "sourceName": "contracts/MyEpicNFT.sol",
  "abi": [
    {
      "inputs": [],
      "stateMutability": "nonpayable",
      "type": "constructor"
    },
    {
      "anonymous": false,
      "inputs": [
        {
          "indexed": true,
          "internalType": "address",
          "name": "owner",
          "type": "address"
        },
        {
          "indexed": true,
          "internalType": "address",
          "name": "approved",
          "type": "address"
        },
        {
          "indexed": true,
          "internalType": "uint256",
          "name": "tokenId",
          "type": "uint256"
        }
      ],
      "name": "Approval",
      "type": "event"
    },
    {
      "anonymous": false,
      "inputs": [
        {
          "indexed": true,
          "internalType": "address",
          "name": "owner",
          "type": "address"
        },
        {
          "indexed": true,
          "internalType": "address",
          "name": "operator",
          "type": "address"
        },
        {
          "indexed": false,
          "internalType": "bool",
          "name": "approved",
          "type": "bool"
        }
      ],
      "name": "ApprovalForAll",
      "type": "event"
    },
    {
      "anonymous": false,
      "inputs": [
        {
          "indexed": false,
          "internalType": "address",
          "name": "sender",
          "type": "address"
        },
        {
          "indexed": false,
          "internalType": "uint256",
          "name": "tokenId",
          "type": "uint256"
        }
      ],
      "name": "NewEpicNFTMinted",
      "type": "event"
    },
    {
      "anonymous": false,
      "inputs": [
        {
          "indexed": true,
          "internalType": "address",
          "name": "from",
          "type": "address"
        },
        {
          "indexed": true,
          "internalType": "address",
          "name": "to",
          "type": "address"
        },
        {
          "indexed": true,
          "internalType": "uint256",
          "name": "tokenId",
          "type": "uint256"
        }
      ],
      "name": "Transfer",
      "type": "event"
    },
    {
      "inputs": [
        {
          "internalType": "address",
          "name": "to",
          "type": "address"
        },
        {
          "internalType": "uint256",
          "name": "tokenId",
          "type": "uint256"
        }
      ],
      "name": "approve",
      "outputs": [],
      "stateMutability": "nonpayable",
      "type": "function"
    },
    {
      "inputs": [
        {
          "internalType": "address",
          "name": "owner",
          "type": "address"
        }
      ],
      "name": "balanceOf",
      "outputs": [
        {
          "internalType": "uint256",
          "name": "",
          "type": "uint256"
        }
      ],
      "stateMutability": "view",
      "type": "function"
    },
    {
      "inputs": [
        {
          "internalType": "uint256",
          "name": "tokenId",
          "type": "uint256"
        }
      ],
      "name": "getApproved",
      "outputs": [
        {
          "internalType": "address",
          "name": "",
          "type": "address"
        }
      ],
      "stateMutability": "view",
      "type": "function"
    },
    {
      "inputs": [],
      "name": "getTotalNFTsMintedSoFar",
      "outputs": [
        {
          "internalType": "uint256",
          "name": "",
          "type": "uint256"
        }
      ],
      "stateMutability": "view",
      "type": "function"
    },
    {
      "inputs": [
        {
          "internalType": "address",
          "name": "owner",
          "type": "address"
        },
        {
          "internalType": "address",
          "name": "operator",
          "type": "address"
        }
      ],
      "name": "isApprovedForAll",
      "outputs": [
        {
          "internalType": "bool",
          "name": "",
          "type": "bool"
        }
      ],
      "stateMutability": "view",
      "type": "function"
    },
    {
      "inputs": [],
      "name": "makeAnEpicNFT",
      "outputs": [],
      "stateMutability": "nonpayable",
      "type": "function"
    },
    {
      "inputs": [],
      "name": "name",
      "outputs": [
        {
          "internalType": "string",
          "name": "",
          "type": "string"
        }
      ],
      "stateMutability": "view",
      "type": "function"
    },
    {
      "inputs": [
        {
          "internalType": "uint256",
          "name": "tokenId",
          "type": "uint256"
        }
      ],
      "name": "ownerOf",
      "outputs": [
        {
          "internalType": "address",
          "name": "",
          "type": "address"
        }
      ],
      "stateMutability": "view",
      "type": "function"
    },
    {
      "inputs": [
        {
          "internalType": "uint256",
          "name": "tokenId",
          "type": "uint256"
        }
      ],
      "name": "pickRandomColor",
      "outputs": [
        {
          "internalType": "string",
          "name": "",
          "type": "string"
        }
      ],
      "stateMutability": "view",
      "type": "function"
    },
    {
      "inputs": [
        {
          "internalType": "uint256",
          "name": "tokenId",
          "type": "uint256"
        }
      ],
      "name": "pickRandomFirstWord",
      "outputs": [
        {
          "internalType": "string",
          "name": "",
          "type": "string"
        }
      ],
      "stateMutability": "view",
      "type": "function"
    },
    {
      "inputs": [
        {
          "internalType": "uint256",
          "name": "tokenId",
          "type": "uint256"
        }
      ],
      "name": "pickRandomSecondWord",
      "outputs": [
        {
          "internalType": "string",
          "name": "",
          "type": "string"
        }
      ],
      "stateMutability": "view",
      "type": "function"
    },
    {
      "inputs": [
        {
          "internalType": "address",
          "name": "from",
          "type": "address"
        },
        {
          "internalType": "address",
          "name": "to",
          "type": "address"
        },
        {
          "internalType": "uint256",
          "name": "tokenId",
          "type": "uint256"
        }
      ],
      "name": "safeTransferFrom",
      "outputs": [],
      "stateMutability": "nonpayable",
      "type": "function"
    },
    {
      "inputs": [
        {
          "internalType": "address",
          "name": "from",
          "type": "address"
        },
        {
          "internalType": "address",
          "name": "to",
          "type": "address"
        },
        {
          "internalType": "uint256",
          "name": "tokenId",
          "type": "uint256"
        },
        {
          "internalType": "bytes",
          "name": "_data",
          "type": "bytes"
        }
      ],
      "name": "safeTransferFrom",
      "outputs": [],
      "stateMutability": "nonpayable",
      "type": "function"
    },
    {
      "inputs": [
        {
          "internalType": "address",
          "name": "operator",
          "type": "address"
        },
        {
          "internalType": "bool",
          "name": "approved",
          "type": "bool"
        }
      ],
      "name": "setApprovalForAll",
      "outputs": [],
      "stateMutability": "nonpayable",
      "type": "function"
    },
    {
      "inputs": [
        {
          "internalType": "bytes4",
          "name": "interfaceId",
          "type": "bytes4"
        }
      ],
      "name": "supportsInterface",
      "outputs": [
        {
          "internalType": "bool",
          "name": "",
          "type": "bool"
        }
      ],
      "stateMutability": "view",
      "type": "function"
    },
    {
      "inputs": [],
      "name": "symbol",
      "outputs": [
        {
          "internalType": "string",
          "name": "",
          "type": "string"
        }
      ],
      "stateMutability": "view",
      "type": "function"
    },
    {
      "inputs": [
        {
          "internalType": "uint256",
          "name": "tokenId",
          "type": "uint256"
        }
      ],
      "name": "tokenURI",
      "outputs": [
        {
          "internalType": "string",
          "name": "",
          "type": "string"
        }
      ],
      "stateMutability": "view",
      "type": "function"
    },
    {
      "inputs": [
        {
          "internalType": "address",
          "name": "from",
          "type": "address"
        },
        {
          "internalType": "address",
          "name": "to",
          "type": "address"
        },
        {
          "internalType": "uint256",
          "name": "tokenId",
          "type": "uint256"
        }
      ],
      "name": "transferFrom",
      "outputs": [],
      "stateMutability": "nonpayable",
      "type": "function"
    }
  ],
  "bytecode": "0x608060405260405180610100016040528060d3815260200162004f4360d3913960089080519060200190620000369291906200114a565b50604051806080016040528060578152602001620050166057913960099080519060200190620000689291906200114a565b50604051806104e001604052806040518060400160405280600581526020017f417765776400000000000000000000000000000000000000000000000000000081525081526020016040518060400160405280600681526020017f4b7275666164000000000000000000000000000000000000000000000000000081525081526020016040518060400160405280600881526020017f536173747269696400000000000000000000000000000000000000000000000081525081526020016040518060400160405280600781526020017f437269616a61640000000000000000000000000000000000000000000000000081525081526020016040518060400160405280600781526020017f4b276b726f72640000000000000000000000000000000000000000000000000081525081526020016040518060400160405280600581526020017f55676f696400000000000000000000000000000000000000000000000000000081525081526020016040518060400160405280600681526020017f5065636b6164000000000000000000000000000000000000000000000000000081525081526020016040518060400160405280600881526020017f546969676c616f6400000000000000000000000000000000000000000000000081525081526020016040518060400160405280600581526020017f486f75626400000000000000000000000000000000000000000000000000000081525081526020016040518060400160405280600481526020017f4f6b69640000000000000000000000000000000000000000000000000000000081525081526020016040518060400160405280600581526020017f57686f6c6400000000000000000000000000000000000000000000000000000081525081526020016040518060400160405280600481526020017f54757a640000000000000000000000000000000000000000000000000000000081525081526020016040518060400160405280600481526020017f436568640000000000000000000000000000000000000000000000000000000081525081526020016040518060400160405280600581526020017f4f7965756400000000000000000000000000000000000000000000000000000081525081526020016040518060400160405280600581526020017f4e696c6f6400000000000000000000000000000000000000000000000000000081525081526020016040518060400160405280600981526020017f537269697468757664000000000000000000000000000000000000000000000081525081526020016040518060400160405280600681526020017f557468616164000000000000000000000000000000000000000000000000000081525081526020016040518060400160405280600881526020017f4565676c6f66756400000000000000000000000000000000000000000000000081525081526020016040518060400160405280600481526020017f417461640000000000000000000000000000000000000000000000000000000081525081526020016040518060400160405280600a81526020017f496472756441776577640000000000000000000000000000000000000000000081525081526020016040518060400160405280600681526020017f4b7275666164000000000000000000000000000000000000000000000000000081525081526020016040518060400160405280600881526020017f536173747269696400000000000000000000000000000000000000000000000081525081526020016040518060400160405280600781526020017f437269616a61640000000000000000000000000000000000000000000000000081525081526020016040518060400160405280600781526020017f4b276b726f72640000000000000000000000000000000000000000000000000081525081526020016040518060400160405280600581526020017f55676f696400000000000000000000000000000000000000000000000000000081525081526020016040518060400160405280600681526020017f5065636b6164000000000000000000000000000000000000000000000000000081525081526020016040518060400160405280600881526020017f546969676c616f6400000000000000000000000000000000000000000000000081525081526020016040518060400160405280600581526020017f486f75626400000000000000000000000000000000000000000000000000000081525081526020016040518060400160405280600481526020017f4f6b69640000000000000000000000000000000000000000000000000000000081525081526020016040518060400160405280600581526020017f57686f6c6400000000000000000000000000000000000000000000000000000081525081526020016040518060400160405280600481526020017f54757a640000000000000000000000000000000000000000000000000000000081525081526020016040518060400160405280600481526020017f436568640000000000000000000000000000000000000000000000000000000081525081526020016040518060400160405280600581526020017f4f7965756400000000000000000000000000000000000000000000000000000081525081526020016040518060400160405280600581526020017f4e696c6f6400000000000000000000000000000000000000000000000000000081525081526020016040518060400160405280600981526020017f537269697468757664000000000000000000000000000000000000000000000081525081526020016040518060400160405280600681526020017f557468616164000000000000000000000000000000000000000000000000000081525081526020016040518060400160405280600881526020017f4565676c6f66756400000000000000000000000000000000000000000000000081525081526020016040518060400160405280600481526020017f417461640000000000000000000000000000000000000000000000000000000081525081526020016040518060400160405280600581526020017f4964727564000000000000000000000000000000000000000000000000000000815250815250600a90602762000982929190620011db565b506040518061028001604052806040518060400160405280600981526020017f4f616c61706c6f6564000000000000000000000000000000000000000000000081525081526020016040518060400160405280600481526020017f427570640000000000000000000000000000000000000000000000000000000081525081526020016040518060400160405280600881526020017f446975676c61626400000000000000000000000000000000000000000000000081525081526020016040518060400160405280600881526020017f576f65736b69696400000000000000000000000000000000000000000000000081525081526020016040518060400160405280600781526020017f456167686577640000000000000000000000000000000000000000000000000081525081526020016040518060400160405280600881526020017f4f697068696f726400000000000000000000000000000000000000000000000081525081526020016040518060400160405280600781526020017f54686565766f640000000000000000000000000000000000000000000000000081525081526020016040518060400160405280600681526020017f497373656764000000000000000000000000000000000000000000000000000081525081526020016040518060400160405280600781526020017f44726f616675640000000000000000000000000000000000000000000000000081525081526020016040518060400160405280600881526020017f456175766169646400000000000000000000000000000000000000000000000081525081526020016040518060400160405280600681526020017f426963726564000000000000000000000000000000000000000000000000000081525081526020016040518060400160405280600781526020017f537465686168640000000000000000000000000000000000000000000000000081525081526020016040518060400160405280600681526020017f476c65767564000000000000000000000000000000000000000000000000000081525081526020016040518060400160405280600b81526020017f4f73736f75676c6561756400000000000000000000000000000000000000000081525081526020016040518060400160405280600581526020017f427227676400000000000000000000000000000000000000000000000000000081525081526020016040518060400160405280600481526020017f4b7572640000000000000000000000000000000000000000000000000000000081525081526020016040518060400160405280600a81526020017f4f6171757562726169640000000000000000000000000000000000000000000081525081526020016040518060400160405280600581526020017f556769626400000000000000000000000000000000000000000000000000000081525081526020016040518060400160405280600781526020017f5068756d6f63640000000000000000000000000000000000000000000000000081525081526020016040518060400160405280600681526020017f456f6e696f640000000000000000000000000000000000000000000000000000815250815250600b90601462000e3b92919062001242565b506040518060a001604052806040518060400160405280600781526020017f233364356138300000000000000000000000000000000000000000000000000081525081526020016040518060400160405280600781526020017f233239333234310000000000000000000000000000000000000000000000000081525081526020016040518060400160405280600781526020017f233030336637640000000000000000000000000000000000000000000000000081525081526020016040518060400160405280600781526020017f233263353835340000000000000000000000000000000000000000000000000081525081526020016040518060400160405280600781526020017f2330643562363200000000000000000000000000000000000000000000000000815250815250600c90600562000f7e929190620012a9565b5034801562000f8c57600080fd5b506040518060400160405280600981526020017f5371756172654e465400000000000000000000000000000000000000000000008152506040518060400160405280600681526020017f53515541524500000000000000000000000000000000000000000000000000008152508160009080519060200190620010119291906200114a565b5080600190805190602001906200102a9291906200114a565b505050620010786040518060400160405280601681526020017f4e465420436f6e7374727563746f722063616c6c6564000000000000000000008152506200107e60201b620012801760201c565b620014ca565b6200111e81604051602401620010959190620013de565b6040516020818303038152906040527f41304fac000000000000000000000000000000000000000000000000000000007bffffffffffffffffffffffffffffffffffffffffffffffffffffffff19166020820180517bffffffffffffffffffffffffffffffffffffffffffffffffffffffff83818316178352505050506200112160201b60201c565b50565b60008151905060006a636f6e736f6c652e6c6f679050602083016000808483855afa5050505050565b828054620011589062001454565b90600052602060002090601f0160209004810192826200117c5760008555620011c8565b82601f106200119757805160ff1916838001178555620011c8565b82800160010185558215620011c8579182015b82811115620011c7578251825591602001919060010190620011aa565b5b509050620011d7919062001310565b5090565b8280548282559060005260206000209081019282156200122f579160200282015b828111156200122e5782518290805190602001906200121d9291906200114a565b5091602001919060010190620011fc565b5b5090506200123e91906200132f565b5090565b82805482825590600052602060002090810192821562001296579160200282015b8281111562001295578251829080519060200190620012849291906200114a565b509160200191906001019062001263565b5b509050620012a591906200132f565b5090565b828054828255906000526020600020908101928215620012fd579160200282015b82811115620012fc578251829080519060200190620012eb9291906200114a565b5091602001919060010190620012ca565b5b5090506200130c91906200132f565b5090565b5b808211156200132b57600081600090555060010162001311565b5090565b5b8082111562001353576000818162001349919062001357565b5060010162001330565b5090565b508054620013659062001454565b6000825580601f106200137957506200139a565b601f01602090049060005260206000209081019062001399919062001310565b5b50565b6000620013aa8262001402565b620013b681856200140d565b9350620013c88185602086016200141e565b620013d381620014b9565b840191505092915050565b60006020820190508181036000830152620013fa81846200139d565b905092915050565b600081519050919050565b600082825260208201905092915050565b60005b838110156200143e57808201518184015260208101905062001421565b838111156200144e576000848401525b50505050565b600060028204905060018216806200146d57607f821691505b602082108114156200148457620014836200148a565b5b50919050565b7f4e487b7100000000000000000000000000000000000000000000000000000000600052602260045260246000fd5b6000601f19601f8301169050919050565b613a6980620014da6000396000f3fe608060405234801561001057600080fd5b50600436106101165760003560e01c80636352211e116100a2578063b187301f11610071578063b187301f14610305578063b88d4fde14610335578063c87b56dd14610351578063de9d132f14610381578063e985e9c51461038b57610116565b80636352211e1461026b57806370a082311461029b57806395d89b41146102cb578063a22cb465146102e957610116565b8063095ea7b3116100e9578063095ea7b3146101b757806323b872dd146101d35780632de38d68146101ef57806342842e0e1461021f578063514dc8c61461023b57610116565b806301ffc9a71461011b578063060475901461014b57806306fdde0314610169578063081812fc14610187575b600080fd5b61013560048036038101906101309190612513565b6103bb565b6040516101429190612c58565b60405180910390f35b61015361049d565b6040516101609190612ed3565b60405180910390f35b6101716104ae565b60405161017e9190612c73565b60405180910390f35b6101a1600480360381019061019c9190612565565b610540565b6040516101ae9190612bc8565b60405180910390f35b6101d160048036038101906101cc91906124d7565b6105c5565b005b6101ed60048036038101906101e891906123d1565b6106dd565b005b61020960048036038101906102049190612565565b61073d565b6040516102169190612c73565b60405180910390f35b610239600480360381019061023491906123d1565b61085b565b005b61025560048036038101906102509190612565565b61087b565b6040516102629190612c73565b60405180910390f35b61028560048036038101906102809190612565565b610999565b6040516102929190612bc8565b60405180910390f35b6102b560048036038101906102b0919061236c565b610a4b565b6040516102c29190612ed3565b60405180910390f35b6102d3610b03565b6040516102e09190612c73565b60405180910390f35b61030360048036038101906102fe919061249b565b610b95565b005b61031f600480360381019061031a9190612565565b610d16565b60405161032c9190612c73565b60405180910390f35b61034f600480360381019061034a9190612420565b610e34565b005b61036b60048036038101906103669190612565565b610e96565b6040516103789190612c73565b60405180910390f35b610389610fe8565b005b6103a560048036038101906103a09190612395565b6111ec565b6040516103b29190612c58565b60405180910390f35b60007f80ac58cd000000000000000000000000000000000000000000000000000000007bffffffffffffffffffffffffffffffffffffffffffffffffffffffff1916827bffffffffffffffffffffffffffffffffffffffffffffffffffffffff1916148061048657507f5b5e139f000000000000000000000000000000000000000000000000000000007bffffffffffffffffffffffffffffffffffffffffffffffffffffffff1916827bffffffffffffffffffffffffffffffffffffffffffffffffffffffff1916145b80610496575061049582611319565b5b9050919050565b60006104a96007611383565b905090565b6060600080546104bd90613167565b80601f01602080910402602001604051908101604052809291908181526020018280546104e990613167565b80156105365780601f1061050b57610100808354040283529160200191610536565b820191906000526020600020905b81548152906001019060200180831161051957829003601f168201915b5050505050905090565b600061054b82611391565b61058a576040517f08c379a000000000000000000000000000000000000000000000000000000000815260040161058190612e33565b60405180910390fd5b6004600083815260200190815260200160002060009054906101000a900473ffffffffffffffffffffffffffffffffffffffff169050919050565b60006105d082610999565b90508073ffffffffffffffffffffffffffffffffffffffff168373ffffffffffffffffffffffffffffffffffffffff161415610641576040517f08c379a000000000000000000000000000000000000000000000000000000000815260040161063890612e93565b60405180910390fd5b8073ffffffffffffffffffffffffffffffffffffffff166106606113fd565b73ffffffffffffffffffffffffffffffffffffffff16148061068f575061068e816106896113fd565b6111ec565b5b6106ce576040517f08c379a00000000000000000000000000000000000000000000000000000000081526004016106c590612d73565b60405180910390fd5b6106d88383611405565b505050565b6106ee6106e86113fd565b826114be565b61072d576040517f08c379a000000000000000000000000000000000000000000000000000000000815260040161072490612eb3565b60405180910390fd5b61073883838361159c565b505050565b6060600061077161074d846117f8565b60405160200161075d9190612b84565b6040516020818303038152906040526119a5565b9050600a80549050816107849190613213565b9050600a81815481106107c0577f4e487b7100000000000000000000000000000000000000000000000000000000600052603260045260246000fd5b9060005260206000200180546107d590613167565b80601f016020809104026020016040519081016040528092919081815260200182805461080190613167565b801561084e5780601f106108235761010080835404028352916020019161084e565b820191906000526020600020905b81548152906001019060200180831161083157829003601f168201915b5050505050915050919050565b61087683838360405180602001604052806000815250610e34565b505050565b606060006108af61088b846117f8565b60405160200161089b9190612b62565b6040516020818303038152906040526119a5565b9050600c80549050816108c29190613213565b9050600c81815481106108fe577f4e487b7100000000000000000000000000000000000000000000000000000000600052603260045260246000fd5b90600052602060002001805461091390613167565b80601f016020809104026020016040519081016040528092919081815260200182805461093f90613167565b801561098c5780601f106109615761010080835404028352916020019161098c565b820191906000526020600020905b81548152906001019060200180831161096f57829003601f168201915b5050505050915050919050565b6000806002600084815260200190815260200160002060009054906101000a900473ffffffffffffffffffffffffffffffffffffffff169050600073ffffffffffffffffffffffffffffffffffffffff168173ffffffffffffffffffffffffffffffffffffffff161415610a42576040517f08c379a0000000000000000000000000000000000000000000000000000000008152600401610a3990612db3565b60405180910390fd5b80915050919050565b60008073ffffffffffffffffffffffffffffffffffffffff168273ffffffffffffffffffffffffffffffffffffffff161415610abc576040517f08c379a0000000000000000000000000000000000000000000000000000000008152600401610ab390612d93565b60405180910390fd5b600360008373ffffffffffffffffffffffffffffffffffffffff1673ffffffffffffffffffffffffffffffffffffffff168152602001908152602001600020549050919050565b606060018054610b1290613167565b80601f0160208091040260200160405190810160405280929190818152602001828054610b3e90613167565b8015610b8b5780601f10610b6057610100808354040283529160200191610b8b565b820191906000526020600020905b815481529060010190602001808311610b6e57829003601f168201915b5050505050905090565b610b9d6113fd565b73ffffffffffffffffffffffffffffffffffffffff168273ffffffffffffffffffffffffffffffffffffffff161415610c0b576040517f08c379a0000000000000000000000000000000000000000000000000000000008152600401610c0290612d33565b60405180910390fd5b8060056000610c186113fd565b73ffffffffffffffffffffffffffffffffffffffff1673ffffffffffffffffffffffffffffffffffffffff16815260200190815260200160002060008473ffffffffffffffffffffffffffffffffffffffff1673ffffffffffffffffffffffffffffffffffffffff16815260200190815260200160002060006101000a81548160ff0219169083151502179055508173ffffffffffffffffffffffffffffffffffffffff16610cc56113fd565b73ffffffffffffffffffffffffffffffffffffffff167f17307eab39ab6107e8899845ad3d59bd9653f200f220920489ca2b5937696c3183604051610d0a9190612c58565b60405180910390a35050565b60606000610d4a610d26846117f8565b604051602001610d369190612afb565b6040516020818303038152906040526119a5565b9050600b8054905081610d5d9190613213565b9050600b8181548110610d99577f4e487b7100000000000000000000000000000000000000000000000000000000600052603260045260246000fd5b906000526020600020018054610dae90613167565b80601f0160208091040260200160405190810160405280929190818152602001828054610dda90613167565b8015610e275780601f10610dfc57610100808354040283529160200191610e27565b820191906000526020600020905b815481529060010190602001808311610e0a57829003601f168201915b5050505050915050919050565b610e45610e3f6113fd565b836114be565b610e84576040517f08c379a0000000000000000000000000000000000000000000000000000000008152600401610e7b90612eb3565b60405180910390fd5b610e90848484846119d8565b50505050565b6060610ea182611391565b610ee0576040517f08c379a0000000000000000000000000000000000000000000000000000000008152600401610ed790612e13565b60405180910390fd5b6000600660008481526020019081526020016000208054610f0090613167565b80601f0160208091040260200160405190810160405280929190818152602001828054610f2c90613167565b8015610f795780601f10610f4e57610100808354040283529160200191610f79565b820191906000526020600020905b815481529060010190602001808311610f5c57829003601f168201915b505050505090506000610f8a611a34565b9050600081511415610fa0578192505050610fe3565b600082511115610fd5578082604051602001610fbd929190612a5f565b60405160208183030381529060405292505050610fe3565b610fde84611a4b565b925050505b919050565b6000610ff46007611383565b905060316001826110059190612f9c565b111561101057600080fd5b600061101b8261073d565b9050600061102883610d16565b90506000828260405160200161103f929190612a83565b6040516020818303038152906040529050600061105b8561087b565b905060006008826009856040516020016110789493929190612ab2565b604051602081830303815290604052905060006110bd8461109884611af2565b6040516020016110a9929190612b1d565b604051602081830303815290604052611af2565b90506000816040516020016110d29190612ba6565b60405160208183030381529060405290506111216040518060400160405280601581526020017f0a2d2d2d2d2d2d2d2d2d2d2d2d2d2d2d2d2d2d2d2d0000000000000000000000815250611280565b61112a81611280565b6111686040518060400160405280601581526020017f2d2d2d2d2d2d2d2d2d2d2d2d2d2d2d2d2d2d2d2d0a0000000000000000000000815250611280565b6111723389611cb0565b61117c8882611cce565b6111866007611d42565b6111a96040518060600160405280602581526020016139cf602591398933611d58565b7febb98688741ffa4c7589bf325de30cf7becb63de567842e1ccdb6cb949fdc82c33896040516111da929190612c2f565b60405180910390a15050505050505050565b6000600560008473ffffffffffffffffffffffffffffffffffffffff1673ffffffffffffffffffffffffffffffffffffffff16815260200190815260200160002060008373ffffffffffffffffffffffffffffffffffffffff1673ffffffffffffffffffffffffffffffffffffffff16815260200190815260200160002060009054906101000a900460ff16905092915050565b611316816040516024016112949190612c73565b6040516020818303038152906040527f41304fac000000000000000000000000000000000000000000000000000000007bffffffffffffffffffffffffffffffffffffffffffffffffffffffff19166020820180517bffffffffffffffffffffffffffffffffffffffffffffffffffffffff8381831617835250505050611df7565b50565b60007f01ffc9a7000000000000000000000000000000000000000000000000000000007bffffffffffffffffffffffffffffffffffffffffffffffffffffffff1916827bffffffffffffffffffffffffffffffffffffffffffffffffffffffff1916149050919050565b600081600001549050919050565b60008073ffffffffffffffffffffffffffffffffffffffff166002600084815260200190815260200160002060009054906101000a900473ffffffffffffffffffffffffffffffffffffffff1673ffffffffffffffffffffffffffffffffffffffff1614159050919050565b600033905090565b816004600083815260200190815260200160002060006101000a81548173ffffffffffffffffffffffffffffffffffffffff021916908373ffffffffffffffffffffffffffffffffffffffff160217905550808273ffffffffffffffffffffffffffffffffffffffff1661147883610999565b73ffffffffffffffffffffffffffffffffffffffff167f8c5be1e5ebec7d5bd14f71427d1e84f3dd0314c0f7b2291e5b200ac8c7c3b92560405160405180910390a45050565b60006114c982611391565b611508576040517f08c379a00000000000000000000000000000000000000000000000000000000081526004016114ff90612d53565b60405180910390fd5b600061151383610999565b90508073ffffffffffffffffffffffffffffffffffffffff168473ffffffffffffffffffffffffffffffffffffffff16148061158257508373ffffffffffffffffffffffffffffffffffffffff1661156a84610540565b73ffffffffffffffffffffffffffffffffffffffff16145b80611593575061159281856111ec565b5b91505092915050565b8273ffffffffffffffffffffffffffffffffffffffff166115bc82610999565b73ffffffffffffffffffffffffffffffffffffffff1614611612576040517f08c379a000000000000000000000000000000000000000000000000000000000815260040161160990612e53565b60405180910390fd5b600073ffffffffffffffffffffffffffffffffffffffff168273ffffffffffffffffffffffffffffffffffffffff161415611682576040517f08c379a000000000000000000000000000000000000000000000000000000000815260040161167990612d13565b60405180910390fd5b61168d838383611e20565b611698600082611405565b6001600360008573ffffffffffffffffffffffffffffffffffffffff1673ffffffffffffffffffffffffffffffffffffffff16815260200190815260200160002060008282546116e8919061307d565b925050819055506001600360008473ffffffffffffffffffffffffffffffffffffffff1673ffffffffffffffffffffffffffffffffffffffff168152602001908152602001600020600082825461173f9190612f9c565b92505081905550816002600083815260200190815260200160002060006101000a81548173ffffffffffffffffffffffffffffffffffffffff021916908373ffffffffffffffffffffffffffffffffffffffff160217905550808273ffffffffffffffffffffffffffffffffffffffff168473ffffffffffffffffffffffffffffffffffffffff167fddf252ad1be2c89b69c2b068fc378daa952ba7f163c4a11628f55a4df523b3ef60405160405180910390a4505050565b60606000821415611840576040518060400160405280600181526020017f300000000000000000000000000000000000000000000000000000000000000081525090506119a0565b600082905060005b6000821461187257808061185b906131ca565b915050600a8261186b9190612ff2565b9150611848565b60008167ffffffffffffffff8111156118b4577f4e487b7100000000000000000000000000000000000000000000000000000000600052604160045260246000fd5b6040519080825280601f01601f1916602001820160405280156118e65781602001600182028036833780820191505090505b5090505b60008514611999576001826118ff919061307d565b9150600a8561190e9190613213565b603061191a9190612f9c565b60f81b818381518110611956577f4e487b7100000000000000000000000000000000000000000000000000000000600052603260045260246000fd5b60200101907effffffffffffffffffffffffffffffffffffffffffffffffffffffffffffff1916908160001a905350600a856119929190612ff2565b94506118ea565b8093505050505b919050565b6000816040516020016119b89190612a48565b6040516020818303038152906040528051906020012060001c9050919050565b6119e384848461159c565b6119ef84848484611e25565b611a2e576040517f08c379a0000000000000000000000000000000000000000000000000000000008152600401611a2590612cd3565b60405180910390fd5b50505050565b606060405180602001604052806000815250905090565b6060611a5682611391565b611a95576040517f08c379a0000000000000000000000000000000000000000000000000000000008152600401611a8c90612e73565b60405180910390fd5b6000611a9f611a34565b90506000815111611abf5760405180602001604052806000815250611aea565b80611ac9846117f8565b604051602001611ada929190612a5f565b6040516020818303038152906040525b915050919050565b60606000825190506000811415611b1b5760405180602001604052806000815250915050611cab565b60006003600283611b2c9190612f9c565b611b369190612ff2565b6004611b429190613023565b90506000602082611b539190612f9c565b67ffffffffffffffff811115611b92577f4e487b7100000000000000000000000000000000000000000000000000000000600052604160045260246000fd5b6040519080825280601f01601f191660200182016040528015611bc45781602001600182028036833780820191505090505b50905060006040518060600160405280604081526020016139f4604091399050600181016020830160005b86811015611c685760038101905062ffffff818a015116603f8160121c168401518060081b905060ff603f83600c1c1686015116810190508060081b905060ff603f8360061c1686015116810190508060081b905060ff603f831686015116810190508060e01b90508084526004840193505050611bef565b506003860660018114611c825760028114611c9257611c9d565b613d3d60f01b6002830352611c9d565b603d60f81b60018303525b508484525050819450505050505b919050565b611cca828260405180602001604052806000815250611fbc565b5050565b611cd782611391565b611d16576040517f08c379a0000000000000000000000000000000000000000000000000000000008152600401611d0d90612dd3565b60405180910390fd5b80600660008481526020019081526020016000209080519060200190611d3d9291906121f8565b505050565b6001816000016000828254019250508190555050565b611df2838383604051602401611d7093929190612c95565b6040516020818303038152906040527fe3849f79000000000000000000000000000000000000000000000000000000007bffffffffffffffffffffffffffffffffffffffffffffffffffffffff19166020820180517bffffffffffffffffffffffffffffffffffffffffffffffffffffffff8381831617835250505050611df7565b505050565b60008151905060006a636f6e736f6c652e6c6f679050602083016000808483855afa5050505050565b505050565b6000611e468473ffffffffffffffffffffffffffffffffffffffff16612017565b15611faf578373ffffffffffffffffffffffffffffffffffffffff1663150b7a02611e6f6113fd565b8786866040518563ffffffff1660e01b8152600401611e919493929190612be3565b602060405180830381600087803b158015611eab57600080fd5b505af1925050508015611edc57506040513d601f19601f82011682018060405250810190611ed9919061253c565b60015b611f5f573d8060008114611f0c576040519150601f19603f3d011682016040523d82523d6000602084013e611f11565b606091505b50600081511415611f57576040517f08c379a0000000000000000000000000000000000000000000000000000000008152600401611f4e90612cd3565b60405180910390fd5b805181602001fd5b63150b7a0260e01b7bffffffffffffffffffffffffffffffffffffffffffffffffffffffff1916817bffffffffffffffffffffffffffffffffffffffffffffffffffffffff191614915050611fb4565b600190505b949350505050565b611fc6838361202a565b611fd36000848484611e25565b612012576040517f08c379a000000000000000000000000000000000000000000000000000000000815260040161200990612cd3565b60405180910390fd5b505050565b600080823b905060008111915050919050565b600073ffffffffffffffffffffffffffffffffffffffff168273ffffffffffffffffffffffffffffffffffffffff16141561209a576040517f08c379a000000000000000000000000000000000000000000000000000000000815260040161209190612df3565b60405180910390fd5b6120a381611391565b156120e3576040517f08c379a00000000000000000000000000000000000000000000000000000000081526004016120da90612cf3565b60405180910390fd5b6120ef60008383611e20565b6001600360008473ffffffffffffffffffffffffffffffffffffffff1673ffffffffffffffffffffffffffffffffffffffff168152602001908152602001600020600082825461213f9190612f9c565b92505081905550816002600083815260200190815260200160002060006101000a81548173ffffffffffffffffffffffffffffffffffffffff021916908373ffffffffffffffffffffffffffffffffffffffff160217905550808273ffffffffffffffffffffffffffffffffffffffff16600073ffffffffffffffffffffffffffffffffffffffff167fddf252ad1be2c89b69c2b068fc378daa952ba7f163c4a11628f55a4df523b3ef60405160405180910390a45050565b82805461220490613167565b90600052602060002090601f016020900481019282612226576000855561226d565b82601f1061223f57805160ff191683800117855561226d565b8280016001018555821561226d579182015b8281111561226c578251825591602001919060010190612251565b5b50905061227a919061227e565b5090565b5b8082111561229757600081600090555060010161227f565b5090565b60006122ae6122a984612f13565b612eee565b9050828152602081018484840111156122c657600080fd5b6122d1848285613125565b509392505050565b6000813590506122e881613972565b92915050565b6000813590506122fd81613989565b92915050565b600081359050612312816139a0565b92915050565b600081519050612327816139a0565b92915050565b600082601f83011261233e57600080fd5b813561234e84826020860161229b565b91505092915050565b600081359050612366816139b7565b92915050565b60006020828403121561237e57600080fd5b600061238c848285016122d9565b91505092915050565b600080604083850312156123a857600080fd5b60006123b6858286016122d9565b92505060206123c7858286016122d9565b9150509250929050565b6000806000606084860312156123e657600080fd5b60006123f4868287016122d9565b9350506020612405868287016122d9565b925050604061241686828701612357565b9150509250925092565b6000806000806080858703121561243657600080fd5b6000612444878288016122d9565b9450506020612455878288016122d9565b935050604061246687828801612357565b925050606085013567ffffffffffffffff81111561248357600080fd5b61248f8782880161232d565b91505092959194509250565b600080604083850312156124ae57600080fd5b60006124bc858286016122d9565b92505060206124cd858286016122ee565b9150509250929050565b600080604083850312156124ea57600080fd5b60006124f8858286016122d9565b925050602061250985828601612357565b9150509250929050565b60006020828403121561252557600080fd5b600061253384828501612303565b91505092915050565b60006020828403121561254e57600080fd5b600061255c84828501612318565b91505092915050565b60006020828403121561257757600080fd5b600061258584828501612357565b91505092915050565b612597816130b1565b82525050565b6125a6816130c3565b82525050565b60006125b782612f59565b6125c18185612f6f565b93506125d1818560208601613134565b6125da81613300565b840191505092915050565b60006125f082612f64565b6125fa8185612f80565b935061260a818560208601613134565b61261381613300565b840191505092915050565b600061262982612f64565b6126338185612f91565b9350612643818560208601613134565b80840191505092915050565b6000815461265c81613167565b6126668186612f91565b945060018216600081146126815760018114612692576126c5565b60ff198316865281860193506126c5565b61269b85612f44565b60005b838110156126bd5781548189015260018201915060208101905061269e565b838801955050505b50505092915050565b60006126db603283612f80565b91506126e682613311565b604082019050919050565b60006126fe601c83612f80565b915061270982613360565b602082019050919050565b6000612721602483612f80565b915061272c82613389565b604082019050919050565b6000612744601983612f80565b915061274f826133d8565b602082019050919050565b6000612767606383612f91565b915061277282613401565b606382019050919050565b600061278a600b83612f91565b91506127958261349c565b600b82019050919050565b60006127ad602c83612f80565b91506127b8826134c5565b604082019050919050565b60006127d0600d83612f91565b91506127db82613514565b600d82019050919050565b60006127f3600183612f91565b91506127fe8261353d565b600182019050919050565b6000612816603883612f80565b915061282182613566565b604082019050919050565b6000612839602a83612f80565b9150612844826135b5565b604082019050919050565b600061285c602983612f80565b915061286782613604565b604082019050919050565b600061287f602e83612f80565b915061288a82613653565b604082019050919050565b60006128a2600283612f91565b91506128ad826136a2565b600282019050919050565b60006128c5602083612f80565b91506128d0826136cb565b602082019050919050565b60006128e8603183612f80565b91506128f3826136f4565b604082019050919050565b600061290b602c83612f80565b915061291682613743565b604082019050919050565b600061292e602983612f80565b915061293982613792565b604082019050919050565b6000612951602f83612f80565b915061295c826137e1565b604082019050919050565b6000612974600a83612f91565b915061297f82613830565b600a82019050919050565b6000612997600783612f91565b91506129a282613859565b600782019050919050565b60006129ba602183612f80565b91506129c582613882565b604082019050919050565b60006129dd600a83612f91565b91506129e8826138d1565b600a82019050919050565b6000612a00601d83612f91565b9150612a0b826138fa565b601d82019050919050565b6000612a23603183612f80565b9150612a2e82613923565b604082019050919050565b612a428161311b565b82525050565b6000612a54828461261e565b915081905092915050565b6000612a6b828561261e565b9150612a77828461261e565b91508190509392505050565b6000612a8f828561261e565b9150612a9a826127e6565b9150612aa6828461261e565b91508190509392505050565b6000612abe828761264f565b9150612aca828661261e565b9150612ad6828561264f565b9150612ae2828461261e565b9150612aed826127c3565b915081905095945050505050565b6000612b068261277d565b9150612b12828461261e565b915081905092915050565b6000612b2882612967565b9150612b34828561261e565b9150612b3f8261275a565b9150612b4b828461261e565b9150612b5682612895565b91508190509392505050565b6000612b6d8261298a565b9150612b79828461261e565b915081905092915050565b6000612b8f826129d0565b9150612b9b828461261e565b915081905092915050565b6000612bb1826129f3565b9150612bbd828461261e565b915081905092915050565b6000602082019050612bdd600083018461258e565b92915050565b6000608082019050612bf8600083018761258e565b612c05602083018661258e565b612c126040830185612a39565b8181036060830152612c2481846125ac565b905095945050505050565b6000604082019050612c44600083018561258e565b612c516020830184612a39565b9392505050565b6000602082019050612c6d600083018461259d565b92915050565b60006020820190508181036000830152612c8d81846125e5565b905092915050565b60006060820190508181036000830152612caf81866125e5565b9050612cbe6020830185612a39565b612ccb604083018461258e565b949350505050565b60006020820190508181036000830152612cec816126ce565b9050919050565b60006020820190508181036000830152612d0c816126f1565b9050919050565b60006020820190508181036000830152612d2c81612714565b9050919050565b60006020820190508181036000830152612d4c81612737565b9050919050565b60006020820190508181036000830152612d6c816127a0565b9050919050565b60006020820190508181036000830152612d8c81612809565b9050919050565b60006020820190508181036000830152612dac8161282c565b9050919050565b60006020820190508181036000830152612dcc8161284f565b9050919050565b60006020820190508181036000830152612dec81612872565b9050919050565b60006020820190508181036000830152612e0c816128b8565b9050919050565b60006020820190508181036000830152612e2c816128db565b9050919050565b60006020820190508181036000830152612e4c816128fe565b9050919050565b60006020820190508181036000830152612e6c81612921565b9050919050565b60006020820190508181036000830152612e8c81612944565b9050919050565b60006020820190508181036000830152612eac816129ad565b9050919050565b60006020820190508181036000830152612ecc81612a16565b9050919050565b6000602082019050612ee86000830184612a39565b92915050565b6000612ef8612f09565b9050612f048282613199565b919050565b6000604051905090565b600067ffffffffffffffff821115612f2e57612f2d6132d1565b5b612f3782613300565b9050602081019050919050565b60008190508160005260206000209050919050565b600081519050919050565b600081519050919050565b600082825260208201905092915050565b600082825260208201905092915050565b600081905092915050565b6000612fa78261311b565b9150612fb28361311b565b9250827fffffffffffffffffffffffffffffffffffffffffffffffffffffffffffffffff03821115612fe757612fe6613244565b5b828201905092915050565b6000612ffd8261311b565b91506130088361311b565b92508261301857613017613273565b5b828204905092915050565b600061302e8261311b565b91506130398361311b565b9250817fffffffffffffffffffffffffffffffffffffffffffffffffffffffffffffffff048311821515161561307257613071613244565b5b828202905092915050565b60006130888261311b565b91506130938361311b565b9250828210156130a6576130a5613244565b5b828203905092915050565b60006130bc826130fb565b9050919050565b60008115159050919050565b60007fffffffff0000000000000000000000000000000000000000000000000000000082169050919050565b600073ffffffffffffffffffffffffffffffffffffffff82169050919050565b6000819050919050565b82818337600083830152505050565b60005b83811015613152578082015181840152602081019050613137565b83811115613161576000848401525b50505050565b6000600282049050600182168061317f57607f821691505b60208210811415613193576131926132a2565b5b50919050565b6131a282613300565b810181811067ffffffffffffffff821117156131c1576131c06132d1565b5b80604052505050565b60006131d58261311b565b91507fffffffffffffffffffffffffffffffffffffffffffffffffffffffffffffffff82141561320857613207613244565b5b600182019050919050565b600061321e8261311b565b91506132298361311b565b92508261323957613238613273565b5b828206905092915050565b7f4e487b7100000000000000000000000000000000000000000000000000000000600052601160045260246000fd5b7f4e487b7100000000000000000000000000000000000000000000000000000000600052601260045260246000fd5b7f4e487b7100000000000000000000000000000000000000000000000000000000600052602260045260246000fd5b7f4e487b7100000000000000000000000000000000000000000000000000000000600052604160045260246000fd5b6000601f19601f8301169050919050565b7f4552433732313a207472616e7366657220746f206e6f6e20455243373231526560008201527f63656976657220696d706c656d656e7465720000000000000000000000000000602082015250565b7f4552433732313a20746f6b656e20616c7265616479206d696e74656400000000600082015250565b7f4552433732313a207472616e7366657220746f20746865207a65726f2061646460008201527f7265737300000000000000000000000000000000000000000000000000000000602082015250565b7f4552433732313a20617070726f766520746f2063616c6c657200000000000000600082015250565b7f222c20226465736372697074696f6e223a20224120686967686c79206163636c60008201527f61696d656420636f6c6c656374696f6e206f6620737175617265732e222c202260208201527f696d616765223a2022646174613a696d6167652f7376672b786d6c3b6261736560408201527f36342c0000000000000000000000000000000000000000000000000000000000606082015250565b7f5345434f4e445f574f5244000000000000000000000000000000000000000000600082015250565b7f4552433732313a206f70657261746f7220717565727920666f72206e6f6e657860008201527f697374656e7420746f6b656e0000000000000000000000000000000000000000602082015250565b7f3c2f746578743e3c2f7376673e00000000000000000000000000000000000000600082015250565b7f2000000000000000000000000000000000000000000000000000000000000000600082015250565b7f4552433732313a20617070726f76652063616c6c6572206973206e6f74206f7760008201527f6e6572206e6f7220617070726f76656420666f7220616c6c0000000000000000602082015250565b7f4552433732313a2062616c616e636520717565727920666f7220746865207a6560008201527f726f206164647265737300000000000000000000000000000000000000000000602082015250565b7f4552433732313a206f776e657220717565727920666f72206e6f6e657869737460008201527f656e7420746f6b656e0000000000000000000000000000000000000000000000602082015250565b7f45524337323155524953746f726167653a2055524920736574206f66206e6f6e60008201527f6578697374656e7420746f6b656e000000000000000000000000000000000000602082015250565b7f227d000000000000000000000000000000000000000000000000000000000000600082015250565b7f4552433732313a206d696e7420746f20746865207a65726f2061646472657373600082015250565b7f45524337323155524953746f726167653a2055524920717565727920666f722060008201527f6e6f6e6578697374656e7420746f6b656e000000000000000000000000000000602082015250565b7f4552433732313a20617070726f76656420717565727920666f72206e6f6e657860008201527f697374656e7420746f6b656e0000000000000000000000000000000000000000602082015250565b7f4552433732313a207472616e73666572206f6620746f6b656e2074686174206960008201527f73206e6f74206f776e0000000000000000000000000000000000000000000000602082015250565b7f4552433732314d657461646174613a2055524920717565727920666f72206e6f60008201527f6e6578697374656e7420746f6b656e0000000000000000000000000000000000602082015250565b7f7b226e616d65223a202200000000000000000000000000000000000000000000600082015250565b7f424b475f434f4c00000000000000000000000000000000000000000000000000600082015250565b7f4552433732313a20617070726f76616c20746f2063757272656e74206f776e6560008201527f7200000000000000000000000000000000000000000000000000000000000000602082015250565b7f46495253545f574f524400000000000000000000000000000000000000000000600082015250565b7f646174613a6170706c69636174696f6e2f6a736f6e3b6261736536342c000000600082015250565b7f4552433732313a207472616e736665722063616c6c6572206973206e6f74206f60008201527f776e6572206e6f7220617070726f766564000000000000000000000000000000602082015250565b61397b816130b1565b811461398657600080fd5b50565b613992816130c3565b811461399d57600080fd5b50565b6139a9816130cf565b81146139b457600080fd5b50565b6139c08161311b565b81146139cb57600080fd5b5056fe416e204e465420772f20494420257320686173206265656e206d696e74656420746f2025734142434445464748494a4b4c4d4e4f505152535455565758595a6162636465666768696a6b6c6d6e6f707172737475767778797a303132333435363738392b2fa2646970667358221220d0467d116236d5647de609b2639098bc1cb1048112fa8b475c5ebc9ae133767464736f6c634300080400333c73766720786d6c6e733d27687474703a2f2f7777772e77332e6f72672f323030302f73766727207072657365727665417370656374526174696f3d27784d696e594d696e206d656574272076696577426f783d273020302033353020333530273e3c7374796c653e2e62617365207b2066696c6c3a2077686974653b20666f6e742d66616d696c793a2073657269663b20666f6e742d73697a653a20323470783b207d3c2f7374796c653e3c726563742077696474683d273130302527206865696768743d2731303025272066696c6c3d2727202f3e3c7465787420783d273530252720793d273530252720636c6173733d27626173652720646f6d696e616e742d626173656c696e653d276d6964646c652720746578742d616e63686f723d276d6964646c65273e",
  "linkReferences": {},
  "deployedLinkReferences": {}
}